{
	"ranja/FundMe2.sol": {
		"FundMe": {
			"abi": [
				{
					"inputs": [
						{
							"internalType": "address",
							"name": "",
							"type": "address"
						}
					],
					"name": "addressToAmountFunded",
					"outputs": [
						{
							"internalType": "uint256",
							"name": "",
							"type": "uint256"
						}
					],
					"stateMutability": "view",
					"type": "function"
				},
				{
					"inputs": [],
					"name": "fund",
					"outputs": [],
					"stateMutability": "payable",
					"type": "function"
				},
				{
					"inputs": [
						{
							"internalType": "uint256",
							"name": "",
							"type": "uint256"
						}
					],
					"name": "funders",
					"outputs": [
						{
							"internalType": "address",
							"name": "",
							"type": "address"
						}
					],
					"stateMutability": "view",
					"type": "function"
				},
				{
					"inputs": [
						{
							"internalType": "uint256",
							"name": "ethAmount",
							"type": "uint256"
						}
					],
					"name": "getConvertionRate",
					"outputs": [
						{
							"internalType": "uint256",
							"name": "",
							"type": "uint256"
						}
					],
					"stateMutability": "view",
					"type": "function"
				},
				{
					"inputs": [],
					"name": "getPrice",
					"outputs": [
						{
							"internalType": "uint256",
							"name": "",
							"type": "uint256"
						}
					],
					"stateMutability": "view",
					"type": "function"
				},
				{
					"inputs": [],
					"name": "getVersion",
					"outputs": [
						{
							"internalType": "uint256",
							"name": "",
							"type": "uint256"
						}
					],
					"stateMutability": "view",
					"type": "function"
				},
				{
					"inputs": [],
					"name": "minimumUsd",
					"outputs": [
						{
							"internalType": "uint256",
							"name": "",
							"type": "uint256"
						}
					],
					"stateMutability": "view",
					"type": "function"
				}
			],
			"devdoc": {
				"kind": "dev",
				"methods": {},
				"version": 1
			},
			"evm": {
				"assembly": "    /* \"ranja/FundMe2.sol\":202:1385  contract FundMe{... */\n  mstore(0x40, 0x80)\n    /* \"ranja/FundMe2.sol\":251:260  50 * 1e18 */\n  0x02b5e3af16b1880000\n    /* \"ranja/FundMe2.sol\":223:260  uint256 public minimumUsd = 50 * 1e18 */\n  0x00\n  sstore\n    /* \"ranja/FundMe2.sol\":202:1385  contract FundMe{... */\n  callvalue\n  dup1\n  iszero\n  tag_1\n  jumpi\n  0x00\n  dup1\n  revert\ntag_1:\n  pop\n  dataSize(sub_0)\n  dup1\n  dataOffset(sub_0)\n  0x00\n  codecopy\n  0x00\n  return\nstop\n\nsub_0: assembly {\n        /* \"ranja/FundMe2.sol\":202:1385  contract FundMe{... */\n      mstore(0x40, 0x80)\n      jumpi(tag_1, lt(calldatasize, 0x04))\n      shr(0xe0, calldataload(0x00))\n      dup1\n      0x3e8cdcda\n      gt\n      tag_9\n      jumpi\n      dup1\n      0x3e8cdcda\n      eq\n      tag_5\n      jumpi\n      dup1\n      0x98d5fdca\n      eq\n      tag_6\n      jumpi\n      dup1\n      0xb60d4288\n      eq\n      tag_7\n      jumpi\n      dup1\n      0xdc0d3dff\n      eq\n      tag_8\n      jumpi\n      jump(tag_1)\n    tag_9:\n      dup1\n      0x098de820\n      eq\n      tag_2\n      jumpi\n      dup1\n      0x0d8e6e2c\n      eq\n      tag_3\n      jumpi\n      dup1\n      0x3e47d6f3\n      eq\n      tag_4\n      jumpi\n    tag_1:\n      0x00\n      dup1\n      revert\n        /* \"ranja/FundMe2.sol\":223:260  uint256 public minimumUsd = 50 * 1e18 */\n    tag_2:\n      callvalue\n      dup1\n      iszero\n      tag_10\n      jumpi\n      0x00\n      dup1\n      revert\n    tag_10:\n      pop\n      tag_11\n      tag_12\n      jump\t// in\n    tag_11:\n      mload(0x40)\n      tag_13\n      swap2\n      swap1\n      tag_14\n      jump\t// in\n    tag_13:\n      mload(0x40)\n      dup1\n      swap2\n      sub\n      swap1\n      return\n        /* \"ranja/FundMe2.sol\":1180:1382  function getVersion() public view returns(uint256){... */\n    tag_3:\n      callvalue\n      dup1\n      iszero\n      tag_15\n      jumpi\n      0x00\n      dup1\n      revert\n    tag_15:\n      pop\n      tag_16\n      tag_17\n      jump\t// in\n    tag_16:\n      mload(0x40)\n      tag_18\n      swap2\n      swap1\n      tag_14\n      jump\t// in\n    tag_18:\n      mload(0x40)\n      dup1\n      swap2\n      sub\n      swap1\n      return\n        /* \"ranja/FundMe2.sol\":296:351  mapping (address=>uint256) public addressToAmountFunded */\n    tag_4:\n      callvalue\n      dup1\n      iszero\n      tag_19\n      jumpi\n      0x00\n      dup1\n      revert\n    tag_19:\n      pop\n      tag_20\n      0x04\n      dup1\n      calldatasize\n      sub\n      dup2\n      add\n      swap1\n      tag_21\n      swap2\n      swap1\n      tag_22\n      jump\t// in\n    tag_21:\n      tag_23\n      jump\t// in\n    tag_20:\n      mload(0x40)\n      tag_24\n      swap2\n      swap1\n      tag_14\n      jump\t// in\n    tag_24:\n      mload(0x40)\n      dup1\n      swap2\n      sub\n      swap1\n      return\n        /* \"ranja/FundMe2.sol\":582:795  function getConvertionRate(uint256 ethAmount) public view returns(uint256){... */\n    tag_5:\n      callvalue\n      dup1\n      iszero\n      tag_25\n      jumpi\n      0x00\n      dup1\n      revert\n    tag_25:\n      pop\n      tag_26\n      0x04\n      dup1\n      calldatasize\n      sub\n      dup2\n      add\n      swap1\n      tag_27\n      swap2\n      swap1\n      tag_28\n      jump\t// in\n    tag_27:\n      tag_29\n      jump\t// in\n    tag_26:\n      mload(0x40)\n      tag_30\n      swap2\n      swap1\n      tag_14\n      jump\t// in\n    tag_30:\n      mload(0x40)\n      dup1\n      swap2\n      sub\n      swap1\n      return\n        /* \"ranja/FundMe2.sol\":800:1175  function getPrice() public view returns(uint256){... */\n    tag_6:\n      callvalue\n      dup1\n      iszero\n      tag_31\n      jumpi\n      0x00\n      dup1\n      revert\n    tag_31:\n      pop\n      tag_32\n      tag_33\n      jump\t// in\n    tag_32:\n      mload(0x40)\n      tag_34\n      swap2\n      swap1\n      tag_14\n      jump\t// in\n    tag_34:\n      mload(0x40)\n      dup1\n      swap2\n      sub\n      swap1\n      return\n        /* \"ranja/FundMe2.sol\":362:577  function fund() public payable{... */\n    tag_7:\n      tag_35\n      tag_36\n      jump\t// in\n    tag_35:\n      stop\n        /* \"ranja/FundMe2.sol\":266:290  address[] public funders */\n    tag_8:\n      callvalue\n      dup1\n      iszero\n      tag_37\n      jumpi\n      0x00\n      dup1\n      revert\n    tag_37:\n      pop\n      tag_38\n      0x04\n      dup1\n      calldatasize\n      sub\n      dup2\n      add\n      swap1\n      tag_39\n      swap2\n      swap1\n      tag_28\n      jump\t// in\n    tag_39:\n      tag_40\n      jump\t// in\n    tag_38:\n      mload(0x40)\n      tag_41\n      swap2\n      swap1\n      tag_42\n      jump\t// in\n    tag_41:\n      mload(0x40)\n      dup1\n      swap2\n      sub\n      swap1\n      return\n        /* \"ranja/FundMe2.sol\":223:260  uint256 public minimumUsd = 50 * 1e18 */\n    tag_12:\n      sload(0x00)\n      dup2\n      jump\t// out\n        /* \"ranja/FundMe2.sol\":1180:1382  function getVersion() public view returns(uint256){... */\n    tag_17:\n        /* \"ranja/FundMe2.sol\":1222:1229  uint256 */\n      0x00\n        /* \"ranja/FundMe2.sol\":1240:1271  AggregatorV3Interface priceFeed */\n      dup1\n        /* \"ranja/FundMe2.sol\":1296:1338  0xD4a33860578De61DBAbDc8BFdb98FD742fA7028e */\n      0xd4a33860578de61dbabdc8bfdb98fd742fa7028e\n        /* \"ranja/FundMe2.sol\":1240:1339  AggregatorV3Interface priceFeed = AggregatorV3Interface(0xD4a33860578De61DBAbDc8BFdb98FD742fA7028e) */\n      swap1\n      pop\n        /* \"ranja/FundMe2.sol\":1356:1365  priceFeed */\n      dup1\n        /* \"ranja/FundMe2.sol\":1356:1373  priceFeed.version */\n      0xffffffffffffffffffffffffffffffffffffffff\n      and\n      0x54fd4d50\n        /* \"ranja/FundMe2.sol\":1356:1375  priceFeed.version() */\n      mload(0x40)\n      dup2\n      0xffffffff\n      and\n      0xe0\n      shl\n      dup2\n      mstore\n      0x04\n      add\n      0x20\n      mload(0x40)\n      dup1\n      dup4\n      sub\n      dup2\n      dup7\n      gas\n      staticcall\n      iszero\n      dup1\n      iszero\n      tag_45\n      jumpi\n      returndatasize\n      0x00\n      dup1\n      returndatacopy\n      revert(0x00, returndatasize)\n    tag_45:\n      pop\n      pop\n      pop\n      pop\n      mload(0x40)\n      returndatasize\n      not(0x1f)\n      0x1f\n      dup3\n      add\n      and\n      dup3\n      add\n      dup1\n      0x40\n      mstore\n      pop\n      dup2\n      add\n      swap1\n      tag_46\n      swap2\n      swap1\n      tag_47\n      jump\t// in\n    tag_46:\n        /* \"ranja/FundMe2.sol\":1349:1375  return priceFeed.version() */\n      swap2\n      pop\n      pop\n        /* \"ranja/FundMe2.sol\":1180:1382  function getVersion() public view returns(uint256){... */\n      swap1\n      jump\t// out\n        /* \"ranja/FundMe2.sol\":296:351  mapping (address=>uint256) public addressToAmountFunded */\n    tag_23:\n      mstore(0x20, 0x02)\n      dup1\n      0x00\n      mstore\n      keccak256(0x00, 0x40)\n      0x00\n      swap2\n      pop\n      swap1\n      pop\n      sload\n      dup2\n      jump\t// out\n        /* \"ranja/FundMe2.sol\":582:795  function getConvertionRate(uint256 ethAmount) public view returns(uint256){... */\n    tag_29:\n        /* \"ranja/FundMe2.sol\":648:655  uint256 */\n      0x00\n        /* \"ranja/FundMe2.sol\":666:682  uint256 ethPrice */\n      dup1\n        /* \"ranja/FundMe2.sol\":685:695  getPrice() */\n      tag_49\n        /* \"ranja/FundMe2.sol\":685:693  getPrice */\n      tag_33\n        /* \"ranja/FundMe2.sol\":685:695  getPrice() */\n      jump\t// in\n    tag_49:\n        /* \"ranja/FundMe2.sol\":666:695  uint256 ethPrice = getPrice() */\n      swap1\n      pop\n        /* \"ranja/FundMe2.sol\":705:727  uint256 ethAmountInUsd */\n      0x00\n        /* \"ranja/FundMe2.sol\":753:757  1e18 */\n      0x0de0b6b3a7640000\n        /* \"ranja/FundMe2.sol\":742:751  ethAmount */\n      dup5\n        /* \"ranja/FundMe2.sol\":731:739  ethPrice */\n      dup4\n        /* \"ranja/FundMe2.sol\":731:751  ethPrice * ethAmount */\n      tag_50\n      swap2\n      swap1\n      tag_51\n      jump\t// in\n    tag_50:\n        /* \"ranja/FundMe2.sol\":730:757  (ethPrice * ethAmount)/1e18 */\n      tag_52\n      swap2\n      swap1\n      tag_53\n      jump\t// in\n    tag_52:\n        /* \"ranja/FundMe2.sol\":705:757  uint256 ethAmountInUsd = (ethPrice * ethAmount)/1e18 */\n      swap1\n      pop\n        /* \"ranja/FundMe2.sol\":774:788  ethAmountInUsd */\n      dup1\n        /* \"ranja/FundMe2.sol\":767:788  return ethAmountInUsd */\n      swap3\n      pop\n      pop\n      pop\n        /* \"ranja/FundMe2.sol\":582:795  function getConvertionRate(uint256 ethAmount) public view returns(uint256){... */\n      swap2\n      swap1\n      pop\n      jump\t// out\n        /* \"ranja/FundMe2.sol\":800:1175  function getPrice() public view returns(uint256){... */\n    tag_33:\n        /* \"ranja/FundMe2.sol\":840:847  uint256 */\n      0x00\n        /* \"ranja/FundMe2.sol\":934:965  AggregatorV3Interface priceFeed */\n      dup1\n        /* \"ranja/FundMe2.sol\":990:1032  0xD4a33860578De61DBAbDc8BFdb98FD742fA7028e */\n      0xd4a33860578de61dbabdc8bfdb98fd742fa7028e\n        /* \"ranja/FundMe2.sol\":934:1033  AggregatorV3Interface priceFeed = AggregatorV3Interface(0xD4a33860578De61DBAbDc8BFdb98FD742fA7028e) */\n      swap1\n      pop\n        /* \"ranja/FundMe2.sol\":1045:1058  int256 answer */\n      0x00\n        /* \"ranja/FundMe2.sol\":1065:1074  priceFeed */\n      dup2\n        /* \"ranja/FundMe2.sol\":1065:1090  priceFeed.latestRoundData */\n      0xffffffffffffffffffffffffffffffffffffffff\n      and\n      0xfeaf968c\n        /* \"ranja/FundMe2.sol\":1065:1092  priceFeed.latestRoundData() */\n      mload(0x40)\n      dup2\n      0xffffffff\n      and\n      0xe0\n      shl\n      dup2\n      mstore\n      0x04\n      add\n      0xa0\n      mload(0x40)\n      dup1\n      dup4\n      sub\n      dup2\n      dup7\n      gas\n      staticcall\n      iszero\n      dup1\n      iszero\n      tag_56\n      jumpi\n      returndatasize\n      0x00\n      dup1\n      returndatacopy\n      revert(0x00, returndatasize)\n    tag_56:\n      pop\n      pop\n      pop\n      pop\n      mload(0x40)\n      returndatasize\n      not(0x1f)\n      0x1f\n      dup3\n      add\n      and\n      dup3\n      add\n      dup1\n      0x40\n      mstore\n      pop\n      dup2\n      add\n      swap1\n      tag_57\n      swap2\n      swap1\n      tag_58\n      jump\t// in\n    tag_57:\n        /* \"ranja/FundMe2.sol\":1043:1092  (,int256 answer,,,) = priceFeed.latestRoundData() */\n      pop\n      pop\n      pop\n      swap2\n      pop\n      pop\n        /* \"ranja/FundMe2.sol\":1163:1167  1e10 */\n      0x02540be400\n        /* \"ranja/FundMe2.sol\":1154:1160  answer */\n      dup2\n        /* \"ranja/FundMe2.sol\":1154:1167  answer * 1e10 */\n      tag_59\n      swap2\n      swap1\n      tag_60\n      jump\t// in\n    tag_59:\n        /* \"ranja/FundMe2.sol\":1139:1168  return uint256(answer * 1e10) */\n      swap3\n      pop\n      pop\n      pop\n        /* \"ranja/FundMe2.sol\":800:1175  function getPrice() public view returns(uint256){... */\n      swap1\n      jump\t// out\n        /* \"ranja/FundMe2.sol\":362:577  function fund() public payable{... */\n    tag_36:\n        /* \"ranja/FundMe2.sol\":442:452  minimumUsd */\n      sload(0x00)\n        /* \"ranja/FundMe2.sol\":410:438  getConvertionRate(msg.value) */\n      tag_62\n        /* \"ranja/FundMe2.sol\":428:437  msg.value */\n      callvalue\n        /* \"ranja/FundMe2.sol\":410:427  getConvertionRate */\n      tag_29\n        /* \"ranja/FundMe2.sol\":410:438  getConvertionRate(msg.value) */\n      jump\t// in\n    tag_62:\n        /* \"ranja/FundMe2.sol\":410:452  getConvertionRate(msg.value) <= minimumUsd */\n      gt\n      iszero\n        /* \"ranja/FundMe2.sol\":402:480  require(getConvertionRate(msg.value) <= minimumUsd,\"Didn't send Enough Ethes\") */\n      tag_63\n      jumpi\n      mload(0x40)\n      0x08c379a000000000000000000000000000000000000000000000000000000000\n      dup2\n      mstore\n      0x04\n      add\n      tag_64\n      swap1\n      tag_65\n      jump\t// in\n    tag_64:\n      mload(0x40)\n      dup1\n      swap2\n      sub\n      swap1\n      revert\n    tag_63:\n        /* \"ranja/FundMe2.sol\":490:497  funders */\n      0x01\n        /* \"ranja/FundMe2.sol\":503:513  msg.sender */\n      caller\n        /* \"ranja/FundMe2.sol\":490:514  funders.push(msg.sender) */\n      swap1\n      dup1\n      0x01\n      dup2\n      sload\n      add\n      dup1\n      dup3\n      sstore\n      dup1\n      swap2\n      pop\n      pop\n      0x01\n      swap1\n      sub\n      swap1\n      0x00\n      mstore\n      keccak256(0x00, 0x20)\n      add\n      0x00\n      swap1\n      swap2\n      swap1\n      swap2\n      swap1\n      swap2\n      0x0100\n      exp\n      dup2\n      sload\n      dup2\n      0xffffffffffffffffffffffffffffffffffffffff\n      mul\n      not\n      and\n      swap1\n      dup4\n      0xffffffffffffffffffffffffffffffffffffffff\n      and\n      mul\n      or\n      swap1\n      sstore\n      pop\n        /* \"ranja/FundMe2.sol\":560:569  msg.value */\n      callvalue\n        /* \"ranja/FundMe2.sol\":524:545  addressToAmountFunded */\n      0x02\n        /* \"ranja/FundMe2.sol\":524:557  addressToAmountFunded[msg.sender] */\n      0x00\n        /* \"ranja/FundMe2.sol\":546:556  msg.sender */\n      caller\n        /* \"ranja/FundMe2.sol\":524:557  addressToAmountFunded[msg.sender] */\n      0xffffffffffffffffffffffffffffffffffffffff\n      and\n      0xffffffffffffffffffffffffffffffffffffffff\n      and\n      dup2\n      mstore\n      0x20\n      add\n      swap1\n      dup2\n      mstore\n      0x20\n      add\n      0x00\n      keccak256\n        /* \"ranja/FundMe2.sol\":524:569  addressToAmountFunded[msg.sender] = msg.value */\n      dup2\n      swap1\n      sstore\n      pop\n        /* \"ranja/FundMe2.sol\":362:577  function fund() public payable{... */\n      jump\t// out\n        /* \"ranja/FundMe2.sol\":266:290  address[] public funders */\n    tag_40:\n      0x01\n      dup2\n      dup2\n      sload\n      dup2\n      lt\n      tag_67\n      jumpi\n      0x00\n      dup1\n      revert\n    tag_67:\n      swap1\n      0x00\n      mstore\n      keccak256(0x00, 0x20)\n      add\n      0x00\n      swap2\n      pop\n      sload\n      swap1\n      0x0100\n      exp\n      swap1\n      div\n      0xffffffffffffffffffffffffffffffffffffffff\n      and\n      dup2\n      jump\t// out\n        /* \"#utility.yul\":7:84   */\n    tag_69:\n        /* \"#utility.yul\":44:51   */\n      0x00\n        /* \"#utility.yul\":73:78   */\n      dup2\n        /* \"#utility.yul\":62:78   */\n      swap1\n      pop\n        /* \"#utility.yul\":7:84   */\n      swap2\n      swap1\n      pop\n      jump\t// out\n        /* \"#utility.yul\":90:208   */\n    tag_70:\n        /* \"#utility.yul\":177:201   */\n      tag_96\n        /* \"#utility.yul\":195:200   */\n      dup2\n        /* \"#utility.yul\":177:201   */\n      tag_69\n      jump\t// in\n    tag_96:\n        /* \"#utility.yul\":172:175   */\n      dup3\n        /* \"#utility.yul\":165:202   */\n      mstore\n        /* \"#utility.yul\":90:208   */\n      pop\n      pop\n      jump\t// out\n        /* \"#utility.yul\":214:436   */\n    tag_14:\n        /* \"#utility.yul\":307:311   */\n      0x00\n        /* \"#utility.yul\":345:347   */\n      0x20\n        /* \"#utility.yul\":334:343   */\n      dup3\n        /* \"#utility.yul\":330:348   */\n      add\n        /* \"#utility.yul\":322:348   */\n      swap1\n      pop\n        /* \"#utility.yul\":358:429   */\n      tag_98\n        /* \"#utility.yul\":426:427   */\n      0x00\n        /* \"#utility.yul\":415:424   */\n      dup4\n        /* \"#utility.yul\":411:428   */\n      add\n        /* \"#utility.yul\":402:408   */\n      dup5\n        /* \"#utility.yul\":358:429   */\n      tag_70\n      jump\t// in\n    tag_98:\n        /* \"#utility.yul\":214:436   */\n      swap3\n      swap2\n      pop\n      pop\n      jump\t// out\n        /* \"#utility.yul\":523:640   */\n    tag_72:\n        /* \"#utility.yul\":632:633   */\n      0x00\n        /* \"#utility.yul\":629:630   */\n      dup1\n        /* \"#utility.yul\":622:634   */\n      revert\n        /* \"#utility.yul\":769:895   */\n    tag_74:\n        /* \"#utility.yul\":806:813   */\n      0x00\n        /* \"#utility.yul\":846:888   */\n      0xffffffffffffffffffffffffffffffffffffffff\n        /* \"#utility.yul\":839:844   */\n      dup3\n        /* \"#utility.yul\":835:889   */\n      and\n        /* \"#utility.yul\":824:889   */\n      swap1\n      pop\n        /* \"#utility.yul\":769:895   */\n      swap2\n      swap1\n      pop\n      jump\t// out\n        /* \"#utility.yul\":901:997   */\n    tag_75:\n        /* \"#utility.yul\":938:945   */\n      0x00\n        /* \"#utility.yul\":967:991   */\n      tag_104\n        /* \"#utility.yul\":985:990   */\n      dup3\n        /* \"#utility.yul\":967:991   */\n      tag_74\n      jump\t// in\n    tag_104:\n        /* \"#utility.yul\":956:991   */\n      swap1\n      pop\n        /* \"#utility.yul\":901:997   */\n      swap2\n      swap1\n      pop\n      jump\t// out\n        /* \"#utility.yul\":1003:1125   */\n    tag_76:\n        /* \"#utility.yul\":1076:1100   */\n      tag_106\n        /* \"#utility.yul\":1094:1099   */\n      dup2\n        /* \"#utility.yul\":1076:1100   */\n      tag_75\n      jump\t// in\n    tag_106:\n        /* \"#utility.yul\":1069:1074   */\n      dup2\n        /* \"#utility.yul\":1066:1101   */\n      eq\n        /* \"#utility.yul\":1056:1119   */\n      tag_107\n      jumpi\n        /* \"#utility.yul\":1115:1116   */\n      0x00\n        /* \"#utility.yul\":1112:1113   */\n      dup1\n        /* \"#utility.yul\":1105:1117   */\n      revert\n        /* \"#utility.yul\":1056:1119   */\n    tag_107:\n        /* \"#utility.yul\":1003:1125   */\n      pop\n      jump\t// out\n        /* \"#utility.yul\":1131:1270   */\n    tag_77:\n        /* \"#utility.yul\":1177:1182   */\n      0x00\n        /* \"#utility.yul\":1215:1221   */\n      dup2\n        /* \"#utility.yul\":1202:1222   */\n      calldataload\n        /* \"#utility.yul\":1193:1222   */\n      swap1\n      pop\n        /* \"#utility.yul\":1231:1264   */\n      tag_109\n        /* \"#utility.yul\":1258:1263   */\n      dup2\n        /* \"#utility.yul\":1231:1264   */\n      tag_76\n      jump\t// in\n    tag_109:\n        /* \"#utility.yul\":1131:1270   */\n      swap3\n      swap2\n      pop\n      pop\n      jump\t// out\n        /* \"#utility.yul\":1276:1605   */\n    tag_22:\n        /* \"#utility.yul\":1335:1341   */\n      0x00\n        /* \"#utility.yul\":1384:1386   */\n      0x20\n        /* \"#utility.yul\":1372:1381   */\n      dup3\n        /* \"#utility.yul\":1363:1370   */\n      dup5\n        /* \"#utility.yul\":1359:1382   */\n      sub\n        /* \"#utility.yul\":1355:1387   */\n      slt\n        /* \"#utility.yul\":1352:1471   */\n      iszero\n      tag_111\n      jumpi\n        /* \"#utility.yul\":1390:1469   */\n      tag_112\n      tag_72\n      jump\t// in\n    tag_112:\n        /* \"#utility.yul\":1352:1471   */\n    tag_111:\n        /* \"#utility.yul\":1510:1511   */\n      0x00\n        /* \"#utility.yul\":1535:1588   */\n      tag_113\n        /* \"#utility.yul\":1580:1587   */\n      dup5\n        /* \"#utility.yul\":1571:1577   */\n      dup3\n        /* \"#utility.yul\":1560:1569   */\n      dup6\n        /* \"#utility.yul\":1556:1578   */\n      add\n        /* \"#utility.yul\":1535:1588   */\n      tag_77\n      jump\t// in\n    tag_113:\n        /* \"#utility.yul\":1525:1588   */\n      swap2\n      pop\n        /* \"#utility.yul\":1481:1598   */\n      pop\n        /* \"#utility.yul\":1276:1605   */\n      swap3\n      swap2\n      pop\n      pop\n      jump\t// out\n        /* \"#utility.yul\":1611:1733   */\n    tag_78:\n        /* \"#utility.yul\":1684:1708   */\n      tag_115\n        /* \"#utility.yul\":1702:1707   */\n      dup2\n        /* \"#utility.yul\":1684:1708   */\n      tag_69\n      jump\t// in\n    tag_115:\n        /* \"#utility.yul\":1677:1682   */\n      dup2\n        /* \"#utility.yul\":1674:1709   */\n      eq\n        /* \"#utility.yul\":1664:1727   */\n      tag_116\n      jumpi\n        /* \"#utility.yul\":1723:1724   */\n      0x00\n        /* \"#utility.yul\":1720:1721   */\n      dup1\n        /* \"#utility.yul\":1713:1725   */\n      revert\n        /* \"#utility.yul\":1664:1727   */\n    tag_116:\n        /* \"#utility.yul\":1611:1733   */\n      pop\n      jump\t// out\n        /* \"#utility.yul\":1739:1878   */\n    tag_79:\n        /* \"#utility.yul\":1785:1790   */\n      0x00\n        /* \"#utility.yul\":1823:1829   */\n      dup2\n        /* \"#utility.yul\":1810:1830   */\n      calldataload\n        /* \"#utility.yul\":1801:1830   */\n      swap1\n      pop\n        /* \"#utility.yul\":1839:1872   */\n      tag_118\n        /* \"#utility.yul\":1866:1871   */\n      dup2\n        /* \"#utility.yul\":1839:1872   */\n      tag_78\n      jump\t// in\n    tag_118:\n        /* \"#utility.yul\":1739:1878   */\n      swap3\n      swap2\n      pop\n      pop\n      jump\t// out\n        /* \"#utility.yul\":1884:2213   */\n    tag_28:\n        /* \"#utility.yul\":1943:1949   */\n      0x00\n        /* \"#utility.yul\":1992:1994   */\n      0x20\n        /* \"#utility.yul\":1980:1989   */\n      dup3\n        /* \"#utility.yul\":1971:1978   */\n      dup5\n        /* \"#utility.yul\":1967:1990   */\n      sub\n        /* \"#utility.yul\":1963:1995   */\n      slt\n        /* \"#utility.yul\":1960:2079   */\n      iszero\n      tag_120\n      jumpi\n        /* \"#utility.yul\":1998:2077   */\n      tag_121\n      tag_72\n      jump\t// in\n    tag_121:\n        /* \"#utility.yul\":1960:2079   */\n    tag_120:\n        /* \"#utility.yul\":2118:2119   */\n      0x00\n        /* \"#utility.yul\":2143:2196   */\n      tag_122\n        /* \"#utility.yul\":2188:2195   */\n      dup5\n        /* \"#utility.yul\":2179:2185   */\n      dup3\n        /* \"#utility.yul\":2168:2177   */\n      dup6\n        /* \"#utility.yul\":2164:2186   */\n      add\n        /* \"#utility.yul\":2143:2196   */\n      tag_79\n      jump\t// in\n    tag_122:\n        /* \"#utility.yul\":2133:2196   */\n      swap2\n      pop\n        /* \"#utility.yul\":2089:2206   */\n      pop\n        /* \"#utility.yul\":1884:2213   */\n      swap3\n      swap2\n      pop\n      pop\n      jump\t// out\n        /* \"#utility.yul\":2219:2337   */\n    tag_80:\n        /* \"#utility.yul\":2306:2330   */\n      tag_124\n        /* \"#utility.yul\":2324:2329   */\n      dup2\n        /* \"#utility.yul\":2306:2330   */\n      tag_75\n      jump\t// in\n    tag_124:\n        /* \"#utility.yul\":2301:2304   */\n      dup3\n        /* \"#utility.yul\":2294:2331   */\n      mstore\n        /* \"#utility.yul\":2219:2337   */\n      pop\n      pop\n      jump\t// out\n        /* \"#utility.yul\":2343:2565   */\n    tag_42:\n        /* \"#utility.yul\":2436:2440   */\n      0x00\n        /* \"#utility.yul\":2474:2476   */\n      0x20\n        /* \"#utility.yul\":2463:2472   */\n      dup3\n        /* \"#utility.yul\":2459:2477   */\n      add\n        /* \"#utility.yul\":2451:2477   */\n      swap1\n      pop\n        /* \"#utility.yul\":2487:2558   */\n      tag_126\n        /* \"#utility.yul\":2555:2556   */\n      0x00\n        /* \"#utility.yul\":2544:2553   */\n      dup4\n        /* \"#utility.yul\":2540:2557   */\n      add\n        /* \"#utility.yul\":2531:2537   */\n      dup5\n        /* \"#utility.yul\":2487:2558   */\n      tag_80\n      jump\t// in\n    tag_126:\n        /* \"#utility.yul\":2343:2565   */\n      swap3\n      swap2\n      pop\n      pop\n      jump\t// out\n        /* \"#utility.yul\":2571:2714   */\n    tag_81:\n        /* \"#utility.yul\":2628:2633   */\n      0x00\n        /* \"#utility.yul\":2659:2665   */\n      dup2\n        /* \"#utility.yul\":2653:2666   */\n      mload\n        /* \"#utility.yul\":2644:2666   */\n      swap1\n      pop\n        /* \"#utility.yul\":2675:2708   */\n      tag_128\n        /* \"#utility.yul\":2702:2707   */\n      dup2\n        /* \"#utility.yul\":2675:2708   */\n      tag_78\n      jump\t// in\n    tag_128:\n        /* \"#utility.yul\":2571:2714   */\n      swap3\n      swap2\n      pop\n      pop\n      jump\t// out\n        /* \"#utility.yul\":2720:3071   */\n    tag_47:\n        /* \"#utility.yul\":2790:2796   */\n      0x00\n        /* \"#utility.yul\":2839:2841   */\n      0x20\n        /* \"#utility.yul\":2827:2836   */\n      dup3\n        /* \"#utility.yul\":2818:2825   */\n      dup5\n        /* \"#utility.yul\":2814:2837   */\n      sub\n        /* \"#utility.yul\":2810:2842   */\n      slt\n        /* \"#utility.yul\":2807:2926   */\n      iszero\n      tag_130\n      jumpi\n        /* \"#utility.yul\":2845:2924   */\n      tag_131\n      tag_72\n      jump\t// in\n    tag_131:\n        /* \"#utility.yul\":2807:2926   */\n    tag_130:\n        /* \"#utility.yul\":2965:2966   */\n      0x00\n        /* \"#utility.yul\":2990:3054   */\n      tag_132\n        /* \"#utility.yul\":3046:3053   */\n      dup5\n        /* \"#utility.yul\":3037:3043   */\n      dup3\n        /* \"#utility.yul\":3026:3035   */\n      dup6\n        /* \"#utility.yul\":3022:3044   */\n      add\n        /* \"#utility.yul\":2990:3054   */\n      tag_81\n      jump\t// in\n    tag_132:\n        /* \"#utility.yul\":2980:3054   */\n      swap2\n      pop\n        /* \"#utility.yul\":2936:3064   */\n      pop\n        /* \"#utility.yul\":2720:3071   */\n      swap3\n      swap2\n      pop\n      pop\n      jump\t// out\n        /* \"#utility.yul\":3077:3257   */\n    tag_82:\n        /* \"#utility.yul\":3125:3202   */\n      0x4e487b7100000000000000000000000000000000000000000000000000000000\n        /* \"#utility.yul\":3122:3123   */\n      0x00\n        /* \"#utility.yul\":3115:3203   */\n      mstore\n        /* \"#utility.yul\":3222:3226   */\n      0x11\n        /* \"#utility.yul\":3219:3220   */\n      0x04\n        /* \"#utility.yul\":3212:3227   */\n      mstore\n        /* \"#utility.yul\":3246:3250   */\n      0x24\n        /* \"#utility.yul\":3243:3244   */\n      0x00\n        /* \"#utility.yul\":3236:3251   */\n      revert\n        /* \"#utility.yul\":3263:3673   */\n    tag_51:\n        /* \"#utility.yul\":3303:3310   */\n      0x00\n        /* \"#utility.yul\":3326:3346   */\n      tag_135\n        /* \"#utility.yul\":3344:3345   */\n      dup3\n        /* \"#utility.yul\":3326:3346   */\n      tag_69\n      jump\t// in\n    tag_135:\n        /* \"#utility.yul\":3321:3346   */\n      swap2\n      pop\n        /* \"#utility.yul\":3360:3380   */\n      tag_136\n        /* \"#utility.yul\":3378:3379   */\n      dup4\n        /* \"#utility.yul\":3360:3380   */\n      tag_69\n      jump\t// in\n    tag_136:\n        /* \"#utility.yul\":3355:3380   */\n      swap3\n      pop\n        /* \"#utility.yul\":3415:3416   */\n      dup3\n        /* \"#utility.yul\":3412:3413   */\n      dup3\n        /* \"#utility.yul\":3408:3417   */\n      mul\n        /* \"#utility.yul\":3437:3467   */\n      tag_137\n        /* \"#utility.yul\":3455:3466   */\n      dup2\n        /* \"#utility.yul\":3437:3467   */\n      tag_69\n      jump\t// in\n    tag_137:\n        /* \"#utility.yul\":3426:3467   */\n      swap2\n      pop\n        /* \"#utility.yul\":3616:3617   */\n      dup3\n        /* \"#utility.yul\":3607:3614   */\n      dup3\n        /* \"#utility.yul\":3603:3618   */\n      div\n        /* \"#utility.yul\":3600:3601   */\n      dup5\n        /* \"#utility.yul\":3597:3619   */\n      eq\n        /* \"#utility.yul\":3577:3578   */\n      dup4\n        /* \"#utility.yul\":3570:3579   */\n      iszero\n        /* \"#utility.yul\":3550:3633   */\n      or\n        /* \"#utility.yul\":3527:3666   */\n      tag_138\n      jumpi\n        /* \"#utility.yul\":3646:3664   */\n      tag_139\n      tag_82\n      jump\t// in\n    tag_139:\n        /* \"#utility.yul\":3527:3666   */\n    tag_138:\n        /* \"#utility.yul\":3311:3673   */\n      pop\n        /* \"#utility.yul\":3263:3673   */\n      swap3\n      swap2\n      pop\n      pop\n      jump\t// out\n        /* \"#utility.yul\":3679:3859   */\n    tag_83:\n        /* \"#utility.yul\":3727:3804   */\n      0x4e487b7100000000000000000000000000000000000000000000000000000000\n        /* \"#utility.yul\":3724:3725   */\n      0x00\n        /* \"#utility.yul\":3717:3805   */\n      mstore\n        /* \"#utility.yul\":3824:3828   */\n      0x12\n        /* \"#utility.yul\":3821:3822   */\n      0x04\n        /* \"#utility.yul\":3814:3829   */\n      mstore\n        /* \"#utility.yul\":3848:3852   */\n      0x24\n        /* \"#utility.yul\":3845:3846   */\n      0x00\n        /* \"#utility.yul\":3838:3853   */\n      revert\n        /* \"#utility.yul\":3865:4050   */\n    tag_53:\n        /* \"#utility.yul\":3905:3906   */\n      0x00\n        /* \"#utility.yul\":3922:3942   */\n      tag_142\n        /* \"#utility.yul\":3940:3941   */\n      dup3\n        /* \"#utility.yul\":3922:3942   */\n      tag_69\n      jump\t// in\n    tag_142:\n        /* \"#utility.yul\":3917:3942   */\n      swap2\n      pop\n        /* \"#utility.yul\":3956:3976   */\n      tag_143\n        /* \"#utility.yul\":3974:3975   */\n      dup4\n        /* \"#utility.yul\":3956:3976   */\n      tag_69\n      jump\t// in\n    tag_143:\n        /* \"#utility.yul\":3951:3976   */\n      swap3\n      pop\n        /* \"#utility.yul\":3995:3996   */\n      dup3\n        /* \"#utility.yul\":3985:4020   */\n      tag_144\n      jumpi\n        /* \"#utility.yul\":4000:4018   */\n      tag_145\n      tag_83\n      jump\t// in\n    tag_145:\n        /* \"#utility.yul\":3985:4020   */\n    tag_144:\n        /* \"#utility.yul\":4042:4043   */\n      dup3\n        /* \"#utility.yul\":4039:4040   */\n      dup3\n        /* \"#utility.yul\":4035:4044   */\n      div\n        /* \"#utility.yul\":4030:4044   */\n      swap1\n      pop\n        /* \"#utility.yul\":3865:4050   */\n      swap3\n      swap2\n      pop\n      pop\n      jump\t// out\n        /* \"#utility.yul\":4056:4161   */\n    tag_84:\n        /* \"#utility.yul\":4092:4099   */\n      0x00\n        /* \"#utility.yul\":4132:4154   */\n      0xffffffffffffffffffff\n        /* \"#utility.yul\":4125:4130   */\n      dup3\n        /* \"#utility.yul\":4121:4155   */\n      and\n        /* \"#utility.yul\":4110:4155   */\n      swap1\n      pop\n        /* \"#utility.yul\":4056:4161   */\n      swap2\n      swap1\n      pop\n      jump\t// out\n        /* \"#utility.yul\":4167:4287   */\n    tag_85:\n        /* \"#utility.yul\":4239:4262   */\n      tag_148\n        /* \"#utility.yul\":4256:4261   */\n      dup2\n        /* \"#utility.yul\":4239:4262   */\n      tag_84\n      jump\t// in\n    tag_148:\n        /* \"#utility.yul\":4232:4237   */\n      dup2\n        /* \"#utility.yul\":4229:4263   */\n      eq\n        /* \"#utility.yul\":4219:4281   */\n      tag_149\n      jumpi\n        /* \"#utility.yul\":4277:4278   */\n      0x00\n        /* \"#utility.yul\":4274:4275   */\n      dup1\n        /* \"#utility.yul\":4267:4279   */\n      revert\n        /* \"#utility.yul\":4219:4281   */\n    tag_149:\n        /* \"#utility.yul\":4167:4287   */\n      pop\n      jump\t// out\n        /* \"#utility.yul\":4293:4434   */\n    tag_86:\n        /* \"#utility.yul\":4349:4354   */\n      0x00\n        /* \"#utility.yul\":4380:4386   */\n      dup2\n        /* \"#utility.yul\":4374:4387   */\n      mload\n        /* \"#utility.yul\":4365:4387   */\n      swap1\n      pop\n        /* \"#utility.yul\":4396:4428   */\n      tag_151\n        /* \"#utility.yul\":4422:4427   */\n      dup2\n        /* \"#utility.yul\":4396:4428   */\n      tag_85\n      jump\t// in\n    tag_151:\n        /* \"#utility.yul\":4293:4434   */\n      swap3\n      swap2\n      pop\n      pop\n      jump\t// out\n        /* \"#utility.yul\":4440:4516   */\n    tag_87:\n        /* \"#utility.yul\":4476:4483   */\n      0x00\n        /* \"#utility.yul\":4505:4510   */\n      dup2\n        /* \"#utility.yul\":4494:4510   */\n      swap1\n      pop\n        /* \"#utility.yul\":4440:4516   */\n      swap2\n      swap1\n      pop\n      jump\t// out\n        /* \"#utility.yul\":4522:4642   */\n    tag_88:\n        /* \"#utility.yul\":4594:4617   */\n      tag_154\n        /* \"#utility.yul\":4611:4616   */\n      dup2\n        /* \"#utility.yul\":4594:4617   */\n      tag_87\n      jump\t// in\n    tag_154:\n        /* \"#utility.yul\":4587:4592   */\n      dup2\n        /* \"#utility.yul\":4584:4618   */\n      eq\n        /* \"#utility.yul\":4574:4636   */\n      tag_155\n      jumpi\n        /* \"#utility.yul\":4632:4633   */\n      0x00\n        /* \"#utility.yul\":4629:4630   */\n      dup1\n        /* \"#utility.yul\":4622:4634   */\n      revert\n        /* \"#utility.yul\":4574:4636   */\n    tag_155:\n        /* \"#utility.yul\":4522:4642   */\n      pop\n      jump\t// out\n        /* \"#utility.yul\":4648:4789   */\n    tag_89:\n        /* \"#utility.yul\":4704:4709   */\n      0x00\n        /* \"#utility.yul\":4735:4741   */\n      dup2\n        /* \"#utility.yul\":4729:4742   */\n      mload\n        /* \"#utility.yul\":4720:4742   */\n      swap1\n      pop\n        /* \"#utility.yul\":4751:4783   */\n      tag_157\n        /* \"#utility.yul\":4777:4782   */\n      dup2\n        /* \"#utility.yul\":4751:4783   */\n      tag_88\n      jump\t// in\n    tag_157:\n        /* \"#utility.yul\":4648:4789   */\n      swap3\n      swap2\n      pop\n      pop\n      jump\t// out\n        /* \"#utility.yul\":4795:5766   */\n    tag_58:\n        /* \"#utility.yul\":4898:4904   */\n      0x00\n        /* \"#utility.yul\":4906:4912   */\n      dup1\n        /* \"#utility.yul\":4914:4920   */\n      0x00\n        /* \"#utility.yul\":4922:4928   */\n      dup1\n        /* \"#utility.yul\":4930:4936   */\n      0x00\n        /* \"#utility.yul\":4979:4982   */\n      0xa0\n        /* \"#utility.yul\":4967:4976   */\n      dup7\n        /* \"#utility.yul\":4958:4965   */\n      dup9\n        /* \"#utility.yul\":4954:4977   */\n      sub\n        /* \"#utility.yul\":4950:4983   */\n      slt\n        /* \"#utility.yul\":4947:5067   */\n      iszero\n      tag_159\n      jumpi\n        /* \"#utility.yul\":4986:5065   */\n      tag_160\n      tag_72\n      jump\t// in\n    tag_160:\n        /* \"#utility.yul\":4947:5067   */\n    tag_159:\n        /* \"#utility.yul\":5106:5107   */\n      0x00\n        /* \"#utility.yul\":5131:5194   */\n      tag_161\n        /* \"#utility.yul\":5186:5193   */\n      dup9\n        /* \"#utility.yul\":5177:5183   */\n      dup3\n        /* \"#utility.yul\":5166:5175   */\n      dup10\n        /* \"#utility.yul\":5162:5184   */\n      add\n        /* \"#utility.yul\":5131:5194   */\n      tag_86\n      jump\t// in\n    tag_161:\n        /* \"#utility.yul\":5121:5194   */\n      swap6\n      pop\n        /* \"#utility.yul\":5077:5204   */\n      pop\n        /* \"#utility.yul\":5243:5245   */\n      0x20\n        /* \"#utility.yul\":5269:5332   */\n      tag_162\n        /* \"#utility.yul\":5324:5331   */\n      dup9\n        /* \"#utility.yul\":5315:5321   */\n      dup3\n        /* \"#utility.yul\":5304:5313   */\n      dup10\n        /* \"#utility.yul\":5300:5322   */\n      add\n        /* \"#utility.yul\":5269:5332   */\n      tag_89\n      jump\t// in\n    tag_162:\n        /* \"#utility.yul\":5259:5332   */\n      swap5\n      pop\n        /* \"#utility.yul\":5214:5342   */\n      pop\n        /* \"#utility.yul\":5381:5383   */\n      0x40\n        /* \"#utility.yul\":5407:5471   */\n      tag_163\n        /* \"#utility.yul\":5463:5470   */\n      dup9\n        /* \"#utility.yul\":5454:5460   */\n      dup3\n        /* \"#utility.yul\":5443:5452   */\n      dup10\n        /* \"#utility.yul\":5439:5461   */\n      add\n        /* \"#utility.yul\":5407:5471   */\n      tag_81\n      jump\t// in\n    tag_163:\n        /* \"#utility.yul\":5397:5471   */\n      swap4\n      pop\n        /* \"#utility.yul\":5352:5481   */\n      pop\n        /* \"#utility.yul\":5520:5522   */\n      0x60\n        /* \"#utility.yul\":5546:5610   */\n      tag_164\n        /* \"#utility.yul\":5602:5609   */\n      dup9\n        /* \"#utility.yul\":5593:5599   */\n      dup3\n        /* \"#utility.yul\":5582:5591   */\n      dup10\n        /* \"#utility.yul\":5578:5600   */\n      add\n        /* \"#utility.yul\":5546:5610   */\n      tag_81\n      jump\t// in\n    tag_164:\n        /* \"#utility.yul\":5536:5610   */\n      swap3\n      pop\n        /* \"#utility.yul\":5491:5620   */\n      pop\n        /* \"#utility.yul\":5659:5662   */\n      0x80\n        /* \"#utility.yul\":5686:5749   */\n      tag_165\n        /* \"#utility.yul\":5741:5748   */\n      dup9\n        /* \"#utility.yul\":5732:5738   */\n      dup3\n        /* \"#utility.yul\":5721:5730   */\n      dup10\n        /* \"#utility.yul\":5717:5739   */\n      add\n        /* \"#utility.yul\":5686:5749   */\n      tag_86\n      jump\t// in\n    tag_165:\n        /* \"#utility.yul\":5676:5749   */\n      swap2\n      pop\n        /* \"#utility.yul\":5630:5759   */\n      pop\n        /* \"#utility.yul\":4795:5766   */\n      swap3\n      swap6\n      pop\n      swap3\n      swap6\n      swap1\n      swap4\n      pop\n      jump\t// out\n        /* \"#utility.yul\":5772:6328   */\n    tag_60:\n        /* \"#utility.yul\":5811:5818   */\n      0x00\n        /* \"#utility.yul\":5834:5853   */\n      tag_167\n        /* \"#utility.yul\":5851:5852   */\n      dup3\n        /* \"#utility.yul\":5834:5853   */\n      tag_87\n      jump\t// in\n    tag_167:\n        /* \"#utility.yul\":5829:5853   */\n      swap2\n      pop\n        /* \"#utility.yul\":5867:5886   */\n      tag_168\n        /* \"#utility.yul\":5884:5885   */\n      dup4\n        /* \"#utility.yul\":5867:5886   */\n      tag_87\n      jump\t// in\n    tag_168:\n        /* \"#utility.yul\":5862:5886   */\n      swap3\n      pop\n        /* \"#utility.yul\":5921:5922   */\n      dup3\n        /* \"#utility.yul\":5918:5919   */\n      dup3\n        /* \"#utility.yul\":5914:5923   */\n      mul\n        /* \"#utility.yul\":5943:5972   */\n      tag_169\n        /* \"#utility.yul\":5960:5971   */\n      dup2\n        /* \"#utility.yul\":5943:5972   */\n      tag_87\n      jump\t// in\n    tag_169:\n        /* \"#utility.yul\":5932:5972   */\n      swap2\n      pop\n        /* \"#utility.yul\":6030:6096   */\n      0x8000000000000000000000000000000000000000000000000000000000000000\n        /* \"#utility.yul\":6027:6028   */\n      dup5\n        /* \"#utility.yul\":6024:6097   */\n      eq\n        /* \"#utility.yul\":6020:6021   */\n      0x00\n        /* \"#utility.yul\":6017:6018   */\n      dup5\n        /* \"#utility.yul\":6013:6022   */\n      slt\n        /* \"#utility.yul\":6009:6098   */\n      and\n        /* \"#utility.yul\":6006:6121   */\n      iszero\n      tag_170\n      jumpi\n        /* \"#utility.yul\":6101:6119   */\n      tag_171\n      tag_82\n      jump\t// in\n    tag_171:\n        /* \"#utility.yul\":6006:6121   */\n    tag_170:\n        /* \"#utility.yul\":6271:6272   */\n      dup3\n        /* \"#utility.yul\":6262:6269   */\n      dup3\n        /* \"#utility.yul\":6257:6273   */\n      sdiv\n        /* \"#utility.yul\":6254:6255   */\n      dup5\n        /* \"#utility.yul\":6251:6274   */\n      eq\n        /* \"#utility.yul\":6231:6232   */\n      dup4\n        /* \"#utility.yul\":6224:6233   */\n      iszero\n        /* \"#utility.yul\":6204:6288   */\n      or\n        /* \"#utility.yul\":6181:6321   */\n      tag_172\n      jumpi\n        /* \"#utility.yul\":6301:6319   */\n      tag_173\n      tag_82\n      jump\t// in\n    tag_173:\n        /* \"#utility.yul\":6181:6321   */\n    tag_172:\n        /* \"#utility.yul\":5819:6328   */\n      pop\n        /* \"#utility.yul\":5772:6328   */\n      swap3\n      swap2\n      pop\n      pop\n      jump\t// out\n        /* \"#utility.yul\":6334:6503   */\n    tag_90:\n        /* \"#utility.yul\":6418:6429   */\n      0x00\n        /* \"#utility.yul\":6452:6458   */\n      dup3\n        /* \"#utility.yul\":6447:6450   */\n      dup3\n        /* \"#utility.yul\":6440:6459   */\n      mstore\n        /* \"#utility.yul\":6492:6496   */\n      0x20\n        /* \"#utility.yul\":6487:6490   */\n      dup3\n        /* \"#utility.yul\":6483:6497   */\n      add\n        /* \"#utility.yul\":6468:6497   */\n      swap1\n      pop\n        /* \"#utility.yul\":6334:6503   */\n      swap3\n      swap2\n      pop\n      pop\n      jump\t// out\n        /* \"#utility.yul\":6509:6683   */\n    tag_91:\n        /* \"#utility.yul\":6649:6675   */\n      0x4469646e27742073656e6420456e6f7567682045746865730000000000000000\n        /* \"#utility.yul\":6645:6646   */\n      0x00\n        /* \"#utility.yul\":6637:6643   */\n      dup3\n        /* \"#utility.yul\":6633:6647   */\n      add\n        /* \"#utility.yul\":6626:6676   */\n      mstore\n        /* \"#utility.yul\":6509:6683   */\n      pop\n      jump\t// out\n        /* \"#utility.yul\":6689:7055   */\n    tag_92:\n        /* \"#utility.yul\":6831:6834   */\n      0x00\n        /* \"#utility.yul\":6852:6919   */\n      tag_177\n        /* \"#utility.yul\":6916:6918   */\n      0x18\n        /* \"#utility.yul\":6911:6914   */\n      dup4\n        /* \"#utility.yul\":6852:6919   */\n      tag_90\n      jump\t// in\n    tag_177:\n        /* \"#utility.yul\":6845:6919   */\n      swap2\n      pop\n        /* \"#utility.yul\":6928:7021   */\n      tag_178\n        /* \"#utility.yul\":7017:7020   */\n      dup3\n        /* \"#utility.yul\":6928:7021   */\n      tag_91\n      jump\t// in\n    tag_178:\n        /* \"#utility.yul\":7046:7048   */\n      0x20\n        /* \"#utility.yul\":7041:7044   */\n      dup3\n        /* \"#utility.yul\":7037:7049   */\n      add\n        /* \"#utility.yul\":7030:7049   */\n      swap1\n      pop\n        /* \"#utility.yul\":6689:7055   */\n      swap2\n      swap1\n      pop\n      jump\t// out\n        /* \"#utility.yul\":7061:7480   */\n    tag_65:\n        /* \"#utility.yul\":7227:7231   */\n      0x00\n        /* \"#utility.yul\":7265:7267   */\n      0x20\n        /* \"#utility.yul\":7254:7263   */\n      dup3\n        /* \"#utility.yul\":7250:7268   */\n      add\n        /* \"#utility.yul\":7242:7268   */\n      swap1\n      pop\n        /* \"#utility.yul\":7314:7323   */\n      dup2\n        /* \"#utility.yul\":7308:7312   */\n      dup2\n        /* \"#utility.yul\":7304:7324   */\n      sub\n        /* \"#utility.yul\":7300:7301   */\n      0x00\n        /* \"#utility.yul\":7289:7298   */\n      dup4\n        /* \"#utility.yul\":7285:7302   */\n      add\n        /* \"#utility.yul\":7278:7325   */\n      mstore\n        /* \"#utility.yul\":7342:7473   */\n      tag_180\n        /* \"#utility.yul\":7468:7472   */\n      dup2\n        /* \"#utility.yul\":7342:7473   */\n      tag_92\n      jump\t// in\n    tag_180:\n        /* \"#utility.yul\":7334:7473   */\n      swap1\n      pop\n        /* \"#utility.yul\":7061:7480   */\n      swap2\n      swap1\n      pop\n      jump\t// out\n\n    auxdata: 0xa2646970667358221220eaf95b5e2bcc33a3dae6f3c228d6319f3cf2d8c7e68d1de9b3cdcfd2cf3382b664736f6c63430008110033\n}\n",
				"bytecode": {
					"linkReferences": {},
					"object": "60806040526802b5e3af16b188000060005534801561001d57600080fd5b506108f48061002d6000396000f3fe6080604052600436106100705760003560e01c80633e8cdcda1161004e5780633e8cdcda1461010857806398d5fdca14610145578063b60d428814610170578063dc0d3dff1461017a57610070565b8063098de820146100755780630d8e6e2c146100a05780633e47d6f3146100cb575b600080fd5b34801561008157600080fd5b5061008a6101b7565b6040516100979190610495565b60405180910390f35b3480156100ac57600080fd5b506100b56101bd565b6040516100c29190610495565b60405180910390f35b3480156100d757600080fd5b506100f260048036038101906100ed9190610513565b61024c565b6040516100ff9190610495565b60405180910390f35b34801561011457600080fd5b5061012f600480360381019061012a919061056c565b610264565b60405161013c9190610495565b60405180910390f35b34801561015157600080fd5b5061015a61029e565b6040516101679190610495565b60405180910390f35b610178610347565b005b34801561018657600080fd5b506101a1600480360381019061019c919061056c565b61043d565b6040516101ae91906105a8565b60405180910390f35b60005481565b60008073d4a33860578de61dbabdc8bfdb98fd742fa7028e90508073ffffffffffffffffffffffffffffffffffffffff166354fd4d506040518163ffffffff1660e01b8152600401602060405180830381865afa158015610222573d6000803e3d6000fd5b505050506040513d601f19601f8201168201806040525081019061024691906105d8565b91505090565b60026020528060005260406000206000915090505481565b60008061026f61029e565b90506000670de0b6b3a764000084836102889190610634565b61029291906106a5565b90508092505050919050565b60008073d4a33860578de61dbabdc8bfdb98fd742fa7028e905060008173ffffffffffffffffffffffffffffffffffffffff1663feaf968c6040518163ffffffff1660e01b815260040160a060405180830381865afa158015610305573d6000803e3d6000fd5b505050506040513d601f19601f82011682018060405250810190610329919061074e565b5050509150506402540be4008161034091906107c9565b9250505090565b60005461035334610264565b1115610394576040517f08c379a000000000000000000000000000000000000000000000000000000000815260040161038b9061089e565b60405180910390fd5b6001339080600181540180825580915050600190039060005260206000200160009091909190916101000a81548173ffffffffffffffffffffffffffffffffffffffff021916908373ffffffffffffffffffffffffffffffffffffffff16021790555034600260003373ffffffffffffffffffffffffffffffffffffffff1673ffffffffffffffffffffffffffffffffffffffff16815260200190815260200160002081905550565b6001818154811061044d57600080fd5b906000526020600020016000915054906101000a900473ffffffffffffffffffffffffffffffffffffffff1681565b6000819050919050565b61048f8161047c565b82525050565b60006020820190506104aa6000830184610486565b92915050565b600080fd5b600073ffffffffffffffffffffffffffffffffffffffff82169050919050565b60006104e0826104b5565b9050919050565b6104f0816104d5565b81146104fb57600080fd5b50565b60008135905061050d816104e7565b92915050565b600060208284031215610529576105286104b0565b5b6000610537848285016104fe565b91505092915050565b6105498161047c565b811461055457600080fd5b50565b60008135905061056681610540565b92915050565b600060208284031215610582576105816104b0565b5b600061059084828501610557565b91505092915050565b6105a2816104d5565b82525050565b60006020820190506105bd6000830184610599565b92915050565b6000815190506105d281610540565b92915050565b6000602082840312156105ee576105ed6104b0565b5b60006105fc848285016105c3565b91505092915050565b7f4e487b7100000000000000000000000000000000000000000000000000000000600052601160045260246000fd5b600061063f8261047c565b915061064a8361047c565b92508282026106588161047c565b9150828204841483151761066f5761066e610605565b5b5092915050565b7f4e487b7100000000000000000000000000000000000000000000000000000000600052601260045260246000fd5b60006106b08261047c565b91506106bb8361047c565b9250826106cb576106ca610676565b5b828204905092915050565b600069ffffffffffffffffffff82169050919050565b6106f5816106d6565b811461070057600080fd5b50565b600081519050610712816106ec565b92915050565b6000819050919050565b61072b81610718565b811461073657600080fd5b50565b60008151905061074881610722565b92915050565b600080600080600060a0868803121561076a576107696104b0565b5b600061077888828901610703565b955050602061078988828901610739565b945050604061079a888289016105c3565b93505060606107ab888289016105c3565b92505060806107bc88828901610703565b9150509295509295909350565b60006107d482610718565b91506107df83610718565b92508282026107ed81610718565b91507f8000000000000000000000000000000000000000000000000000000000000000841460008412161561082557610824610605565b5b828205841483151761083a57610839610605565b5b5092915050565b600082825260208201905092915050565b7f4469646e27742073656e6420456e6f7567682045746865730000000000000000600082015250565b6000610888601883610841565b915061089382610852565b602082019050919050565b600060208201905081810360008301526108b78161087b565b905091905056fea2646970667358221220eaf95b5e2bcc33a3dae6f3c228d6319f3cf2d8c7e68d1de9b3cdcfd2cf3382b664736f6c63430008110033",
					"opcodes": "PUSH1 0x80 PUSH1 0x40 MSTORE PUSH9 0x2B5E3AF16B1880000 PUSH1 0x0 SSTORE CALLVALUE DUP1 ISZERO PUSH2 0x1D JUMPI PUSH1 0x0 DUP1 REVERT JUMPDEST POP PUSH2 0x8F4 DUP1 PUSH2 0x2D PUSH1 0x0 CODECOPY PUSH1 0x0 RETURN INVALID PUSH1 0x80 PUSH1 0x40 MSTORE PUSH1 0x4 CALLDATASIZE LT PUSH2 0x70 JUMPI PUSH1 0x0 CALLDATALOAD PUSH1 0xE0 SHR DUP1 PUSH4 0x3E8CDCDA GT PUSH2 0x4E JUMPI DUP1 PUSH4 0x3E8CDCDA EQ PUSH2 0x108 JUMPI DUP1 PUSH4 0x98D5FDCA EQ PUSH2 0x145 JUMPI DUP1 PUSH4 0xB60D4288 EQ PUSH2 0x170 JUMPI DUP1 PUSH4 0xDC0D3DFF EQ PUSH2 0x17A JUMPI PUSH2 0x70 JUMP JUMPDEST DUP1 PUSH4 0x98DE820 EQ PUSH2 0x75 JUMPI DUP1 PUSH4 0xD8E6E2C EQ PUSH2 0xA0 JUMPI DUP1 PUSH4 0x3E47D6F3 EQ PUSH2 0xCB JUMPI JUMPDEST PUSH1 0x0 DUP1 REVERT JUMPDEST CALLVALUE DUP1 ISZERO PUSH2 0x81 JUMPI PUSH1 0x0 DUP1 REVERT JUMPDEST POP PUSH2 0x8A PUSH2 0x1B7 JUMP JUMPDEST PUSH1 0x40 MLOAD PUSH2 0x97 SWAP2 SWAP1 PUSH2 0x495 JUMP JUMPDEST PUSH1 0x40 MLOAD DUP1 SWAP2 SUB SWAP1 RETURN JUMPDEST CALLVALUE DUP1 ISZERO PUSH2 0xAC JUMPI PUSH1 0x0 DUP1 REVERT JUMPDEST POP PUSH2 0xB5 PUSH2 0x1BD JUMP JUMPDEST PUSH1 0x40 MLOAD PUSH2 0xC2 SWAP2 SWAP1 PUSH2 0x495 JUMP JUMPDEST PUSH1 0x40 MLOAD DUP1 SWAP2 SUB SWAP1 RETURN JUMPDEST CALLVALUE DUP1 ISZERO PUSH2 0xD7 JUMPI PUSH1 0x0 DUP1 REVERT JUMPDEST POP PUSH2 0xF2 PUSH1 0x4 DUP1 CALLDATASIZE SUB DUP2 ADD SWAP1 PUSH2 0xED SWAP2 SWAP1 PUSH2 0x513 JUMP JUMPDEST PUSH2 0x24C JUMP JUMPDEST PUSH1 0x40 MLOAD PUSH2 0xFF SWAP2 SWAP1 PUSH2 0x495 JUMP JUMPDEST PUSH1 0x40 MLOAD DUP1 SWAP2 SUB SWAP1 RETURN JUMPDEST CALLVALUE DUP1 ISZERO PUSH2 0x114 JUMPI PUSH1 0x0 DUP1 REVERT JUMPDEST POP PUSH2 0x12F PUSH1 0x4 DUP1 CALLDATASIZE SUB DUP2 ADD SWAP1 PUSH2 0x12A SWAP2 SWAP1 PUSH2 0x56C JUMP JUMPDEST PUSH2 0x264 JUMP JUMPDEST PUSH1 0x40 MLOAD PUSH2 0x13C SWAP2 SWAP1 PUSH2 0x495 JUMP JUMPDEST PUSH1 0x40 MLOAD DUP1 SWAP2 SUB SWAP1 RETURN JUMPDEST CALLVALUE DUP1 ISZERO PUSH2 0x151 JUMPI PUSH1 0x0 DUP1 REVERT JUMPDEST POP PUSH2 0x15A PUSH2 0x29E JUMP JUMPDEST PUSH1 0x40 MLOAD PUSH2 0x167 SWAP2 SWAP1 PUSH2 0x495 JUMP JUMPDEST PUSH1 0x40 MLOAD DUP1 SWAP2 SUB SWAP1 RETURN JUMPDEST PUSH2 0x178 PUSH2 0x347 JUMP JUMPDEST STOP JUMPDEST CALLVALUE DUP1 ISZERO PUSH2 0x186 JUMPI PUSH1 0x0 DUP1 REVERT JUMPDEST POP PUSH2 0x1A1 PUSH1 0x4 DUP1 CALLDATASIZE SUB DUP2 ADD SWAP1 PUSH2 0x19C SWAP2 SWAP1 PUSH2 0x56C JUMP JUMPDEST PUSH2 0x43D JUMP JUMPDEST PUSH1 0x40 MLOAD PUSH2 0x1AE SWAP2 SWAP1 PUSH2 0x5A8 JUMP JUMPDEST PUSH1 0x40 MLOAD DUP1 SWAP2 SUB SWAP1 RETURN JUMPDEST PUSH1 0x0 SLOAD DUP2 JUMP JUMPDEST PUSH1 0x0 DUP1 PUSH20 0xD4A33860578DE61DBABDC8BFDB98FD742FA7028E SWAP1 POP DUP1 PUSH20 0xFFFFFFFFFFFFFFFFFFFFFFFFFFFFFFFFFFFFFFFF AND PUSH4 0x54FD4D50 PUSH1 0x40 MLOAD DUP2 PUSH4 0xFFFFFFFF AND PUSH1 0xE0 SHL DUP2 MSTORE PUSH1 0x4 ADD PUSH1 0x20 PUSH1 0x40 MLOAD DUP1 DUP4 SUB DUP2 DUP7 GAS STATICCALL ISZERO DUP1 ISZERO PUSH2 0x222 JUMPI RETURNDATASIZE PUSH1 0x0 DUP1 RETURNDATACOPY RETURNDATASIZE PUSH1 0x0 REVERT JUMPDEST POP POP POP POP PUSH1 0x40 MLOAD RETURNDATASIZE PUSH1 0x1F NOT PUSH1 0x1F DUP3 ADD AND DUP3 ADD DUP1 PUSH1 0x40 MSTORE POP DUP2 ADD SWAP1 PUSH2 0x246 SWAP2 SWAP1 PUSH2 0x5D8 JUMP JUMPDEST SWAP2 POP POP SWAP1 JUMP JUMPDEST PUSH1 0x2 PUSH1 0x20 MSTORE DUP1 PUSH1 0x0 MSTORE PUSH1 0x40 PUSH1 0x0 KECCAK256 PUSH1 0x0 SWAP2 POP SWAP1 POP SLOAD DUP2 JUMP JUMPDEST PUSH1 0x0 DUP1 PUSH2 0x26F PUSH2 0x29E JUMP JUMPDEST SWAP1 POP PUSH1 0x0 PUSH8 0xDE0B6B3A7640000 DUP5 DUP4 PUSH2 0x288 SWAP2 SWAP1 PUSH2 0x634 JUMP JUMPDEST PUSH2 0x292 SWAP2 SWAP1 PUSH2 0x6A5 JUMP JUMPDEST SWAP1 POP DUP1 SWAP3 POP POP POP SWAP2 SWAP1 POP JUMP JUMPDEST PUSH1 0x0 DUP1 PUSH20 0xD4A33860578DE61DBABDC8BFDB98FD742FA7028E SWAP1 POP PUSH1 0x0 DUP2 PUSH20 0xFFFFFFFFFFFFFFFFFFFFFFFFFFFFFFFFFFFFFFFF AND PUSH4 0xFEAF968C PUSH1 0x40 MLOAD DUP2 PUSH4 0xFFFFFFFF AND PUSH1 0xE0 SHL DUP2 MSTORE PUSH1 0x4 ADD PUSH1 0xA0 PUSH1 0x40 MLOAD DUP1 DUP4 SUB DUP2 DUP7 GAS STATICCALL ISZERO DUP1 ISZERO PUSH2 0x305 JUMPI RETURNDATASIZE PUSH1 0x0 DUP1 RETURNDATACOPY RETURNDATASIZE PUSH1 0x0 REVERT JUMPDEST POP POP POP POP PUSH1 0x40 MLOAD RETURNDATASIZE PUSH1 0x1F NOT PUSH1 0x1F DUP3 ADD AND DUP3 ADD DUP1 PUSH1 0x40 MSTORE POP DUP2 ADD SWAP1 PUSH2 0x329 SWAP2 SWAP1 PUSH2 0x74E JUMP JUMPDEST POP POP POP SWAP2 POP POP PUSH5 0x2540BE400 DUP2 PUSH2 0x340 SWAP2 SWAP1 PUSH2 0x7C9 JUMP JUMPDEST SWAP3 POP POP POP SWAP1 JUMP JUMPDEST PUSH1 0x0 SLOAD PUSH2 0x353 CALLVALUE PUSH2 0x264 JUMP JUMPDEST GT ISZERO PUSH2 0x394 JUMPI PUSH1 0x40 MLOAD PUSH32 0x8C379A000000000000000000000000000000000000000000000000000000000 DUP2 MSTORE PUSH1 0x4 ADD PUSH2 0x38B SWAP1 PUSH2 0x89E JUMP JUMPDEST PUSH1 0x40 MLOAD DUP1 SWAP2 SUB SWAP1 REVERT JUMPDEST PUSH1 0x1 CALLER SWAP1 DUP1 PUSH1 0x1 DUP2 SLOAD ADD DUP1 DUP3 SSTORE DUP1 SWAP2 POP POP PUSH1 0x1 SWAP1 SUB SWAP1 PUSH1 0x0 MSTORE PUSH1 0x20 PUSH1 0x0 KECCAK256 ADD PUSH1 0x0 SWAP1 SWAP2 SWAP1 SWAP2 SWAP1 SWAP2 PUSH2 0x100 EXP DUP2 SLOAD DUP2 PUSH20 0xFFFFFFFFFFFFFFFFFFFFFFFFFFFFFFFFFFFFFFFF MUL NOT AND SWAP1 DUP4 PUSH20 0xFFFFFFFFFFFFFFFFFFFFFFFFFFFFFFFFFFFFFFFF AND MUL OR SWAP1 SSTORE POP CALLVALUE PUSH1 0x2 PUSH1 0x0 CALLER PUSH20 0xFFFFFFFFFFFFFFFFFFFFFFFFFFFFFFFFFFFFFFFF AND PUSH20 0xFFFFFFFFFFFFFFFFFFFFFFFFFFFFFFFFFFFFFFFF AND DUP2 MSTORE PUSH1 0x20 ADD SWAP1 DUP2 MSTORE PUSH1 0x20 ADD PUSH1 0x0 KECCAK256 DUP2 SWAP1 SSTORE POP JUMP JUMPDEST PUSH1 0x1 DUP2 DUP2 SLOAD DUP2 LT PUSH2 0x44D JUMPI PUSH1 0x0 DUP1 REVERT JUMPDEST SWAP1 PUSH1 0x0 MSTORE PUSH1 0x20 PUSH1 0x0 KECCAK256 ADD PUSH1 0x0 SWAP2 POP SLOAD SWAP1 PUSH2 0x100 EXP SWAP1 DIV PUSH20 0xFFFFFFFFFFFFFFFFFFFFFFFFFFFFFFFFFFFFFFFF AND DUP2 JUMP JUMPDEST PUSH1 0x0 DUP2 SWAP1 POP SWAP2 SWAP1 POP JUMP JUMPDEST PUSH2 0x48F DUP2 PUSH2 0x47C JUMP JUMPDEST DUP3 MSTORE POP POP JUMP JUMPDEST PUSH1 0x0 PUSH1 0x20 DUP3 ADD SWAP1 POP PUSH2 0x4AA PUSH1 0x0 DUP4 ADD DUP5 PUSH2 0x486 JUMP JUMPDEST SWAP3 SWAP2 POP POP JUMP JUMPDEST PUSH1 0x0 DUP1 REVERT JUMPDEST PUSH1 0x0 PUSH20 0xFFFFFFFFFFFFFFFFFFFFFFFFFFFFFFFFFFFFFFFF DUP3 AND SWAP1 POP SWAP2 SWAP1 POP JUMP JUMPDEST PUSH1 0x0 PUSH2 0x4E0 DUP3 PUSH2 0x4B5 JUMP JUMPDEST SWAP1 POP SWAP2 SWAP1 POP JUMP JUMPDEST PUSH2 0x4F0 DUP2 PUSH2 0x4D5 JUMP JUMPDEST DUP2 EQ PUSH2 0x4FB JUMPI PUSH1 0x0 DUP1 REVERT JUMPDEST POP JUMP JUMPDEST PUSH1 0x0 DUP2 CALLDATALOAD SWAP1 POP PUSH2 0x50D DUP2 PUSH2 0x4E7 JUMP JUMPDEST SWAP3 SWAP2 POP POP JUMP JUMPDEST PUSH1 0x0 PUSH1 0x20 DUP3 DUP5 SUB SLT ISZERO PUSH2 0x529 JUMPI PUSH2 0x528 PUSH2 0x4B0 JUMP JUMPDEST JUMPDEST PUSH1 0x0 PUSH2 0x537 DUP5 DUP3 DUP6 ADD PUSH2 0x4FE JUMP JUMPDEST SWAP2 POP POP SWAP3 SWAP2 POP POP JUMP JUMPDEST PUSH2 0x549 DUP2 PUSH2 0x47C JUMP JUMPDEST DUP2 EQ PUSH2 0x554 JUMPI PUSH1 0x0 DUP1 REVERT JUMPDEST POP JUMP JUMPDEST PUSH1 0x0 DUP2 CALLDATALOAD SWAP1 POP PUSH2 0x566 DUP2 PUSH2 0x540 JUMP JUMPDEST SWAP3 SWAP2 POP POP JUMP JUMPDEST PUSH1 0x0 PUSH1 0x20 DUP3 DUP5 SUB SLT ISZERO PUSH2 0x582 JUMPI PUSH2 0x581 PUSH2 0x4B0 JUMP JUMPDEST JUMPDEST PUSH1 0x0 PUSH2 0x590 DUP5 DUP3 DUP6 ADD PUSH2 0x557 JUMP JUMPDEST SWAP2 POP POP SWAP3 SWAP2 POP POP JUMP JUMPDEST PUSH2 0x5A2 DUP2 PUSH2 0x4D5 JUMP JUMPDEST DUP3 MSTORE POP POP JUMP JUMPDEST PUSH1 0x0 PUSH1 0x20 DUP3 ADD SWAP1 POP PUSH2 0x5BD PUSH1 0x0 DUP4 ADD DUP5 PUSH2 0x599 JUMP JUMPDEST SWAP3 SWAP2 POP POP JUMP JUMPDEST PUSH1 0x0 DUP2 MLOAD SWAP1 POP PUSH2 0x5D2 DUP2 PUSH2 0x540 JUMP JUMPDEST SWAP3 SWAP2 POP POP JUMP JUMPDEST PUSH1 0x0 PUSH1 0x20 DUP3 DUP5 SUB SLT ISZERO PUSH2 0x5EE JUMPI PUSH2 0x5ED PUSH2 0x4B0 JUMP JUMPDEST JUMPDEST PUSH1 0x0 PUSH2 0x5FC DUP5 DUP3 DUP6 ADD PUSH2 0x5C3 JUMP JUMPDEST SWAP2 POP POP SWAP3 SWAP2 POP POP JUMP JUMPDEST PUSH32 0x4E487B7100000000000000000000000000000000000000000000000000000000 PUSH1 0x0 MSTORE PUSH1 0x11 PUSH1 0x4 MSTORE PUSH1 0x24 PUSH1 0x0 REVERT JUMPDEST PUSH1 0x0 PUSH2 0x63F DUP3 PUSH2 0x47C JUMP JUMPDEST SWAP2 POP PUSH2 0x64A DUP4 PUSH2 0x47C JUMP JUMPDEST SWAP3 POP DUP3 DUP3 MUL PUSH2 0x658 DUP2 PUSH2 0x47C JUMP JUMPDEST SWAP2 POP DUP3 DUP3 DIV DUP5 EQ DUP4 ISZERO OR PUSH2 0x66F JUMPI PUSH2 0x66E PUSH2 0x605 JUMP JUMPDEST JUMPDEST POP SWAP3 SWAP2 POP POP JUMP JUMPDEST PUSH32 0x4E487B7100000000000000000000000000000000000000000000000000000000 PUSH1 0x0 MSTORE PUSH1 0x12 PUSH1 0x4 MSTORE PUSH1 0x24 PUSH1 0x0 REVERT JUMPDEST PUSH1 0x0 PUSH2 0x6B0 DUP3 PUSH2 0x47C JUMP JUMPDEST SWAP2 POP PUSH2 0x6BB DUP4 PUSH2 0x47C JUMP JUMPDEST SWAP3 POP DUP3 PUSH2 0x6CB JUMPI PUSH2 0x6CA PUSH2 0x676 JUMP JUMPDEST JUMPDEST DUP3 DUP3 DIV SWAP1 POP SWAP3 SWAP2 POP POP JUMP JUMPDEST PUSH1 0x0 PUSH10 0xFFFFFFFFFFFFFFFFFFFF DUP3 AND SWAP1 POP SWAP2 SWAP1 POP JUMP JUMPDEST PUSH2 0x6F5 DUP2 PUSH2 0x6D6 JUMP JUMPDEST DUP2 EQ PUSH2 0x700 JUMPI PUSH1 0x0 DUP1 REVERT JUMPDEST POP JUMP JUMPDEST PUSH1 0x0 DUP2 MLOAD SWAP1 POP PUSH2 0x712 DUP2 PUSH2 0x6EC JUMP JUMPDEST SWAP3 SWAP2 POP POP JUMP JUMPDEST PUSH1 0x0 DUP2 SWAP1 POP SWAP2 SWAP1 POP JUMP JUMPDEST PUSH2 0x72B DUP2 PUSH2 0x718 JUMP JUMPDEST DUP2 EQ PUSH2 0x736 JUMPI PUSH1 0x0 DUP1 REVERT JUMPDEST POP JUMP JUMPDEST PUSH1 0x0 DUP2 MLOAD SWAP1 POP PUSH2 0x748 DUP2 PUSH2 0x722 JUMP JUMPDEST SWAP3 SWAP2 POP POP JUMP JUMPDEST PUSH1 0x0 DUP1 PUSH1 0x0 DUP1 PUSH1 0x0 PUSH1 0xA0 DUP7 DUP9 SUB SLT ISZERO PUSH2 0x76A JUMPI PUSH2 0x769 PUSH2 0x4B0 JUMP JUMPDEST JUMPDEST PUSH1 0x0 PUSH2 0x778 DUP9 DUP3 DUP10 ADD PUSH2 0x703 JUMP JUMPDEST SWAP6 POP POP PUSH1 0x20 PUSH2 0x789 DUP9 DUP3 DUP10 ADD PUSH2 0x739 JUMP JUMPDEST SWAP5 POP POP PUSH1 0x40 PUSH2 0x79A DUP9 DUP3 DUP10 ADD PUSH2 0x5C3 JUMP JUMPDEST SWAP4 POP POP PUSH1 0x60 PUSH2 0x7AB DUP9 DUP3 DUP10 ADD PUSH2 0x5C3 JUMP JUMPDEST SWAP3 POP POP PUSH1 0x80 PUSH2 0x7BC DUP9 DUP3 DUP10 ADD PUSH2 0x703 JUMP JUMPDEST SWAP2 POP POP SWAP3 SWAP6 POP SWAP3 SWAP6 SWAP1 SWAP4 POP JUMP JUMPDEST PUSH1 0x0 PUSH2 0x7D4 DUP3 PUSH2 0x718 JUMP JUMPDEST SWAP2 POP PUSH2 0x7DF DUP4 PUSH2 0x718 JUMP JUMPDEST SWAP3 POP DUP3 DUP3 MUL PUSH2 0x7ED DUP2 PUSH2 0x718 JUMP JUMPDEST SWAP2 POP PUSH32 0x8000000000000000000000000000000000000000000000000000000000000000 DUP5 EQ PUSH1 0x0 DUP5 SLT AND ISZERO PUSH2 0x825 JUMPI PUSH2 0x824 PUSH2 0x605 JUMP JUMPDEST JUMPDEST DUP3 DUP3 SDIV DUP5 EQ DUP4 ISZERO OR PUSH2 0x83A JUMPI PUSH2 0x839 PUSH2 0x605 JUMP JUMPDEST JUMPDEST POP SWAP3 SWAP2 POP POP JUMP JUMPDEST PUSH1 0x0 DUP3 DUP3 MSTORE PUSH1 0x20 DUP3 ADD SWAP1 POP SWAP3 SWAP2 POP POP JUMP JUMPDEST PUSH32 0x4469646E27742073656E6420456E6F7567682045746865730000000000000000 PUSH1 0x0 DUP3 ADD MSTORE POP JUMP JUMPDEST PUSH1 0x0 PUSH2 0x888 PUSH1 0x18 DUP4 PUSH2 0x841 JUMP JUMPDEST SWAP2 POP PUSH2 0x893 DUP3 PUSH2 0x852 JUMP JUMPDEST PUSH1 0x20 DUP3 ADD SWAP1 POP SWAP2 SWAP1 POP JUMP JUMPDEST PUSH1 0x0 PUSH1 0x20 DUP3 ADD SWAP1 POP DUP2 DUP2 SUB PUSH1 0x0 DUP4 ADD MSTORE PUSH2 0x8B7 DUP2 PUSH2 0x87B JUMP JUMPDEST SWAP1 POP SWAP2 SWAP1 POP JUMP INVALID LOG2 PUSH5 0x6970667358 0x22 SLT KECCAK256 0xEA 0xF9 JUMPDEST 0x5E 0x2B 0xCC CALLER LOG3 0xDA 0xE6 RETURN 0xC2 0x28 0xD6 BALANCE SWAP16 EXTCODECOPY CALLCODE 0xD8 0xC7 0xE6 DUP14 SAR 0xE9 0xB3 0xCD 0xCF 0xD2 0xCF CALLER DUP3 0xB6 PUSH5 0x736F6C6343 STOP ADDMOD GT STOP CALLER "
				},
				"gasEstimates": {
					"creation": {
						"codeDepositCost": "458400",
						"executionCost": "22599",
						"totalCost": "480999"
					},
					"external": {
						"addressToAmountFunded(address)": "2859",
						"fund()": "infinite",
						"funders(uint256)": "5022",
						"getConvertionRate(uint256)": "infinite",
						"getPrice()": "infinite",
						"getVersion()": "infinite",
						"minimumUsd()": "2430"
					}
				},
				"methodIdentifiers": {
					"addressToAmountFunded(address)": "3e47d6f3",
					"fund()": "b60d4288",
					"funders(uint256)": "dc0d3dff",
					"getConvertionRate(uint256)": "3e8cdcda",
					"getPrice()": "98d5fdca",
					"getVersion()": "0d8e6e2c",
					"minimumUsd()": "098de820"
				}
			},
			"storageLayout": {
				"storage": [
					{
						"astId": 53,
						"contract": "ranja/FundMe2.sol:FundMe",
						"label": "minimumUsd",
						"offset": 0,
						"slot": "0",
						"type": "t_uint256"
					},
					{
						"astId": 56,
						"contract": "ranja/FundMe2.sol:FundMe",
						"label": "funders",
						"offset": 0,
						"slot": "1",
						"type": "t_array(t_address)dyn_storage"
					},
					{
						"astId": 60,
						"contract": "ranja/FundMe2.sol:FundMe",
						"label": "addressToAmountFunded",
						"offset": 0,
						"slot": "2",
						"type": "t_mapping(t_address,t_uint256)"
					}
				],
				"types": {
					"t_address": {
						"encoding": "inplace",
						"label": "address",
						"numberOfBytes": "20"
					},
					"t_array(t_address)dyn_storage": {
						"base": "t_address",
						"encoding": "dynamic_array",
						"label": "address[]",
						"numberOfBytes": "32"
					},
					"t_mapping(t_address,t_uint256)": {
						"encoding": "mapping",
						"key": "t_address",
						"label": "mapping(address => uint256)",
						"numberOfBytes": "32",
						"value": "t_uint256"
					},
					"t_uint256": {
						"encoding": "inplace",
						"label": "uint256",
						"numberOfBytes": "32"
					}
				}
			},
			"userdoc": {
				"kind": "user",
				"methods": {},
				"version": 1
			}
		}
	}
}